100421695700012077171460      DISK MED PADUA DISTRIBUIDORA DE MEDSanto Antonio de Padua        RJ22385490042011100120111031331
11RODOVIA PIRAPETINGA A PADUA       SN   KM 01                 SANTA LUZIA    28470000ADILSON                     002238549004
5029696069000183ISENTO        20111031RJ011  0570945102P000000000245000000000024500000000000466000000000000000000000000001900N
503223686100016080870663      20111010RJ011  0729085403P000000004502600000000450260000000000000000000000000000000000000000000N
504030143400014684409103      20111001RJ011  2112745403P000000001792800000000179280000000000000000000000000000000000000000000N
504030143400014684409103      20111001RJ011  2112745102P000000000318000000000031800000000000604000000000000000000000000001900N
50109996430001440013102680070 20111001MG011  2112756403P000000036870000000003687000000000044244000000000000000000000000001200N
5027153741000169ISENTO        20111001ES011  2112766108P000000006112900000000611290000000004279000000000000000000000000000700N
5011430357000126ISENTO        20111001RJ011  2112775403P000000004196300000000419630000000000000000000000000000000000000000000N
5011430357000126ISENTO        20111001RJ011  2112775102P000000003338200000000333820000000006343000000000000000000000000001900N
5011430357000126ISENTO        20111001RJ011  2112775102P000000000183900000000018390000000000478000000000000000000000000002600N
507367962300010685172107      20111001RJ011  2112785403P000000045315600000004531560000000000000000000000000000000000000000000N
5018338178000102ISENTO        20111001MG011  2112796108P000000005824000000000582400000000006989000000000000000000000000001200N
5018338178000102ISENTO        20111001MG011  2112806108P000000007996800000000799680000000009596000000000000000000000000001200N
5018338178000102ISENTO        20111001MG011  2112816108P000000012119300000001211930000000014543000000000000000000000000001200N
5018338178000102ISENTO        20111001MG011  2112826108P000000018608300000001860830000000022330000000000000000000000000001200N
5018338178000102ISENTO        20111001MG011  2112836108P000000003901000000000390100000000004681000000000000000000000000001200N
5018338178000102ISENTO        20111001MG011  2112846108P000000015772600000001577260000000018927000000000000000000000000001200N
5018338178000102ISENTO        20111001MG011  2112856108P000000003543500000000354350000000004252000000000000000000000000001200N
5018338178000102ISENTO        20111001MG011  2112866108P000000001112900000000111290000000001335000000000000000000000000001200N
5018338178000102ISENTO        20111001MG011  2112876108P000000054564300000005456430000000065477000000000000000000000000001200N
5018338178000102ISENTO        20111001MG011  2112886108P000000019278200000001927820000000023134000000000000000000000000001200N
5018338178000102ISENTO        20111001MG011  2112896108P000000022599600000002259960000000027120000000000000000000000000001200N
5018338178000102ISENTO        20111001MG011  2112906108P000000008110000000000811000000000009732000000000000000000000000001200N
5018338178000102ISENTO        20111001MG011  2112916108P000000002920200000000292020000000003504000000000000000000000000001200N
5018338178000102ISENTO        20111001MG011  2112926108P000000008252300000000825230000000009903000000000000000000000000001200N
5018338178000102ISENTO        20111001MG011  2112936108P000000006186400000000618640000000007424000000000000000000000000001200N
5018338178000102ISENTO        20111001MG011  2112946108P000000010537000000001053700000000012644000000000000000000000000001200N
5018338178000102ISENTO        20111001MG011  2112956108P000000014678100000001467810000000017614000000000000000000000000001200N
5018338178000102ISENTO        20111001MG011  2112966108P000000038860300000003886030000000046632000000000000000000000000001200N
502923684100018480866348      20111001RJ011  2112975403P000000003168900000000316890000000000000000000000000000000000000000000N
502923684100018480866348      20111001RJ011  2112975102P000000001900200000000190020000000003610000000000000000000000000001900N
5024258337000161ISENTO        20111001MG011  2112986108P000000004029000000000402900000000004835000000000000000000000000001200N
5004549227000141ISENTO        20111001RJ011  2112995403P000000042554900000004255490000000000000000000000000000000000000000000N
5004549227000141ISENTO        20111001RJ011  2112995102P000000000772500000000077250000000001468000000000000000000000000001900N
5018338178000102ISENTO        20111001MG011  2113026108P000000008383700000000838370000000010060000000000000000000000000001200N
5018338178000102ISENTO        20111001MG011  2113036108P000000006920300000000692030000000008304000000000000000000000000001200N
5018338178000102ISENTO        20111001MG011  2113046108P000000004256400000000425640000000005108000000000000000000000000001200N
5018338178000102ISENTO        20111001MG011  2113056108P000000006443200000000644320000000007732000000000000000000000000001200N
5018338178000102ISENTO        20111001MG011  2113066108P000000000302400000000030240000000000363000000000000000000000000001200N
50048505560001285112320660032 20111001MG011  2113076403P000000001587800000000158780000000002006000000000000000000000000001200N
5012047232000184ISENTO        20111003RJ011  2113085403P000000010313000000001031300000000000000000000000000000000000000000000N
5011934211000118ISENTO        20111003RJ011  2113095403P000000003386000000000338600000000000000000000000000000000000000000000N
5012292556000188ISENTO        20111003RJ011  2113105102P000000077059200000007705920000000146412000000000000000000000000001900N
5012292556000188ISENTO        20111003RJ011  2113115403P000000410299100000041029910000000000000000000000000000000000000000000N
5011892333000199ISENTO        20111003RJ011  2113135403P000000009600000000000960000000000000000000000000000000000000000000000N
5011892333000199ISENTO        20111003RJ011  2113135102P000000010800000000001080000000000020520000000000000000000000000001900N
5017710690000175ISENTO        20111003MG011  2113146108P000000010828800000001082880000000012995000000000000000000000000001200N
5012995547000153ISENTO        20111003RJ011  2113155403P000000031500000000003150000000000000000000000000000000000000000000000N
50218785900001207134933760062 20111003MG011  2113166403P000000004832600000000483260000000005799000000000000000000000000001200N
50251710670001104675836100070 20111003MG011  2113176108P000000000114800000000011480000000000145000000000000000000000000001200N
50251710670001104675836100070 20111003MG011  2113176403P000000001920500000000192050000000002426000000000000000000000000001200N
50048505560001285112320660032 20111003MG011  2113186108P000000000403600000000040360000000000510000000000000000000000000001200N
50048505560001285112320660032 20111003MG011  2113186403P000000003189400000000318940000000004029000000000000000000000000001200N
50075743730001157133881930034 20111003MG011  2113196403P000000003000000000000300000000000003600000000000000000000000000001200N
5017734625000180ISENTO        20111003MG011  2113206108P000000005449800000000544980000000006540000000000000000000000000001200N
5021561576000106ISENTO        20111003MG011  2113216108P000000009320100000000932010000000011184000000000000000000000000001200N
5017734906000132ISENTO        20111003MG011  2113226108P000000003805000000000380500000000004566000000000000000000000000001200N
5031575483000186ISENTO        20111003RJ011  2113235403P000000004445200000000444520000000000000000000000000000000000000000000N
5021187075000101ISENTO        20111003MG011  2113246108P000000007010900000000701090000000000000000000000000000000000000000000N
5021187075000101ISENTO        20111003MG011  2113246108P000000021380600000002138060000000025657000000000000000000000000001200N
5029115441000110ISENTO        20111003RJ011  2113255403P000000012247600000001224760000000000000000000000000000000000000000000N
5012047232000184ISENTO        20111003RJ011  2113265403P000000006936000000000693600000000000000000000000000000000000000000000N
5012292556000188ISENTO        20111003RJ011  2113275403P000000185455700000018545570000000000000000000000000000000000000000000N
5030402937000154ISENTO        20111003RJ011  2113285403P000000002998200000000299820000000000000000000000000000000000000000000N
5002934539000143ISENTO        20111003RJ011  2113295403P000000005732100000000573210000000000000000000000000000000000000000000N
503922450600011084992046      20111003RJ011  2113305403P000000000840000000000084000000000000000000000000000000000000000000000N
503922450600011084992046      20111003RJ011  2113305102P000000001400000000000140000000000002660000000000000000000000000001900N
50080889960001400010106030086 20111003MG011  2113316403P000000005346700000000534670000000006416000000000000000000000000001200N
503166968200015382573291      20111003RJ011  2113325403P000000001707200000000170720000000000000000000000000000000000000000000N
503166968200015382573291      20111003RJ011  2113325102P000000000731700000000073170000000001390000000000000000000000000001900N
500359893100012178306750      20111003RJ011  2113335403P000000006567000000000656700000000000000000000000000000000000000000000N
500359893100012178306750      20111003RJ011  2113335102P000000000088900000000008890000000000169000000000000000000000000001900N
503014694800011080837348      20111003RJ011  2113345403P000000004597800000000459780000000000000000000000000000000000000000000N
503014694800011080837348      20111003RJ011  2113345102P000000000084000000000008400000000000160000000000000000000000000001900N
500943863900012878473126      20111003RJ011  2113355403P000000004982200000000498220000000000000000000000000000000000000000000N
50133700110001050017455320019 20111003MG011  2113366403P000000008673200000000867320000000010408000000000000000000000000001200N
503646334700011884393681      20111003RJ011  2113375403P000000003728000000000372800000000000000000000000000000000000000000000N
503646334700011884393681      20111003RJ011  2113375102P000000001056000000000105600000000002006000000000000000000000000001900N
5000357959000189081718420     20111003ES011  2113386403P000000003503600000000350360000000002422000000000000000000000000000700N
500255336100019075716788      20111003RJ011  2113395403P000000002784800000000278480000000000000000000000000000000000000000000N
500255336100019075716788      20111003RJ011  2113395102P000000000255600000000025560000000000486000000000000000000000000001900N
5028522738000138ISENTO        20111003ES011  2113406108P000000002604800000000260480000000001823000000000000000000000000000700N
5031575483000186ISENTO        20111003RJ011  2113415403P000000001996800000000199680000000000000000000000000000000000000000000N
5001648573000199ISENTO        20111003RJ011  2113425403P000000002456600000000245660000000000000000000000000000000000000000000N
5032412819000748ISENTO        20111003RJ011  2113435403P000000000358500000000035850000000000000000000000000000000000000000000N
5032412819000748ISENTO        20111003RJ011  2113445403P000000000358500000000035850000000000000000000000000000000000000000000N
5004249257000132ISENTO        20111003RJ011  2113455403P000000008563000000000856300000000000000000000000000000000000000000000N
5018338178000102ISENTO        20111003MG011  2113466108P000000008966200000000896620000000010759000000000000000000000000001200N
5000103582007063ISENTO        20111003MG011  2113476108P000000014929400000001492940000000017915000000000000000000000000001200N
5000309851000110ISENTO        20111003MG011  2113486108P000000002058000000000205800000000002470000000000000000000000000001200N
5024802225000120ISENTO        20111003MG011  2113496108P000000002769000000000276900000000003323000000000000000000000000001200N
5029115441000110ISENTO        20111003RJ011  2113505403P000000003103600000000310360000000000000000000000000000000000000000000N
5032412819000748ISENTO        20111003RJ011  2113515949P000000000118400000000011840000000000000000000000000000000000000000000N
502925928000013980882661      20111003RJ011  2113525403P000000001562000000000156200000000000000000000000000000000000000000000N
502925928000013980882661      20111003RJ011  2113525102P000000000514000000000051400000000000977000000000000000000000000001900N
5018636209000101ISENTO        20111003MG011  2113536108P000000007821400000000782140000000009386000000000000000000000000001200N
502927716700077179140821      20111003RJ011  2113545403P000000004536000000000453600000000000000000000000000000000000000000000N
5030240030000136ISENTO        20111003RJ011  2113555102P000000001987200000000198720000000000000000000000000000000000000000000N
5030240030000136ISENTO        20111003RJ011  2113555403P000000002797900000000279790000000000000000000000000000000000000000000N
5030240030000136ISENTO        20111003RJ011  2113555102P000000001545000000000154500000000002936000000000000000000000000001900N
5005132108000151ISENTO        20111003RJ011  2113565403P000000004284800000000428480000000000000000000000000000000000000000000N
5036285484000100ISENTO        20111003RJ011  2113575403P000000014347000000001434700000000000000000000000000000000000000000000N
5005669731000148ISENTO        20111003MG011  2113586108P000000002476000000000247600000000002971000000000000000000000000001200N
50192731680001073674184260005 20111003MG011  2113616411P000000000234800000000023480000000000281000000000000000000000000001200N
5032412819000748ISENTO        20111003RJ011  2113625403P000000001574400000000157440000000000000000000000000000000000000000000N
50260393210001932460612370086 20111003MG011  2113636108P000000000133000000000013300000000000160000000000000000000000000001200N
50260393210001932460612370086 20111003MG011  2113636403P000000000432300000000043230000000000519000000000000000000000000001200N
507416626500010984782300      20111003RJ011  2113645403P000000002884200000000288420000000000000000000000000000000000000000000N
507416626500010984782300      20111003RJ011  2113645102P000000001183900000000118390000000002368000000000000000000000000001900N
501122229400011278874937      20111003RJ011  2113655403P000000007975300000000797530000000000000000000000000000000000000000000N
501122229400011278874937      20111003RJ011  2113655102P000000000236500000000023650000000000449000000000000000000000000001900N
500942813500012778523360      20111003RJ011  2113665403P000000002245800000000224580000000000000000000000000000000000000000000N
5007475351000106082332215     20111003ES011  2113676108P000000000207800000000020780000000000000000000000000000000000000000000N
5007475351000106082332215     20111003ES011  2113676108P000000002207700000000220770000000001545000000000000000000000000000700N
5007475351000106082332215     20111003ES011  2113676403P000000012503700000001250370000000008753000000000000000000000000000700N
5007475351000106082332215     20111003ES011  2113686108P000000000138000000000013800000000000000000000000000000000000000000000N
5007475351000106082332215     20111003ES011  2113686108P000000000319500000000031950000000000224000000000000000000000000000700N
5007475351000106082332215     20111003ES011  2113686403P000000013099300000001309930000000009113000000000000000000000000000700N
500090212500010785298879      20111003RJ011  2113695102P000000001209600000000120960000000000000000000000000000000000000000000N
500090212500010785298879      20111003RJ011  2113695403P000000000750000000000075000000000000000000000000000000000000000000000N
503922450600011084992046      20111003RJ011  2113705403P000000000300000000000030000000000000000000000000000000000000000000000N
503922450600011084992046      20111003RJ011  2113705102P000000001740000000000174000000000003306000000000000000000000000001900N
5007475351000106082332215     20111003ES011  2113716108P000000000310200000000031020000000000217000000000000000000000000000700N
5007475351000106082332215     20111003ES011  2113716403P000000006538900000000653890000000004477000000000000000000000000000700N
500117627100016584524336      20111003RJ011  2113725403P000000003357800000000335780000000000000000000000000000000000000000000N
500117627100016584524336      20111003RJ011  2113725102P000000000081500000000008150000000000155000000000000000000000000001900N
5018338152000164ISENTO        20111003MG011  2113736108P000000008657200000000865720000000010389000000000000000000000000001200N
50048344170001000151599840071 20111003MG011  2113746108P000000000126000000000012600000000000000000000000000000000000000000000N
50048344170001000151599840071 20111003MG011  2113746403P000000001872900000000187290000000002247000000000000000000000000001200N
5017710690000175ISENTO        20111003MG011  2113756108P000000002384000000000238400000000002861000000000000000000000000001200N
501058994000011178687070      20111003RJ011  2113765403P000000002296000000000229600000000000000000000000000000000000000000000N
501058994000011178687070      20111003RJ011  2113765102P000000000078000000000007800000000000148000000000000000000000000001900N
503241003700018480476264      20111003RJ011  2113775403P000000008046800000000804680000000000000000000000000000000000000000000N
5018114272000188ISENTO        20111003MG011  2113786108P000000006295900000000629590000000007555000000000000000000000000001200N
5031506306000148ISENTO        20111003RJ011  2113795403P000000020884000000002088400000000000000000000000000000000000000000000N
5017947615000122ISENTO        20111003MG011  2113806108P000000018678100000001867810000000022414000000000000000000000000001200N
5017735754000192ISENTO        20111003MG011  2113816108P000000014200000000001420000000000017040000000000000000000000000001200N
503629126800017784256269      20111003RJ011  2113825403P000000002009400000000200940000000000000000000000000000000000000000000N
5018092825000149ISENTO        20111003MG011  2113836108P000000003802200000000380220000000003650000000000000000000000000001200N
50024146980001173670934220019 20111003MG011  2113846108P000000002112500000000211250000000002535000000000000000000000000001200N
5012047232000184ISENTO        20111003RJ011  2113855403P000000022069600000002206960000000000000000000000000000000000000000000N
503072390200011780782772      20111003RJ011  2113865403P000000002065300000000206530000000000000000000000000000000000000000000N
502860420500010380847459      20111003RJ011  2113875403P000000001577000000000157700000000000000000000000000000000000000000000N
501221614700010079112437      20111003RJ011  2113885403P000000007195300000000719530000000000000000000000000000000000000000000N
501221614700010079112437      20111003RJ011  2113885102P000000000399000000000039900000000000798000000000000000000000000001900N
503159135700011581124973      20111003RJ011  2113895403P000000009449300000000944930000000000000000000000000000000000000000000N
5027075878000142080425860     20111003ES011  2113906403P000000002515200000000251520000000001761000000000000000000000000000700N
503949897700011680901410      20111003RJ011  2113915403P000000005793200000000579320000000000000000000000000000000000000000000N
50135922280001600017678630034 20111003MG011  2113926403P000000002101300000000210130000000002654000000000000000000000000001200N
506872608200019084468193      20111003RJ011  2113935403P000000007809700000000780970000000000000000000000000000000000000000000N
503159344500015681124930      20111003RJ011  2113945403P000000003900800000000390080000000000000000000000000000000000000000000N
500706747000011177845283      20111003RJ011  2113955403P000000001588000000000158800000000000000000000000000000000000000000000N
500706747000011177845283      20111003RJ011  2113955102P000000000119400000000011940000000000227000000000000000000000000001900N
50093152240001670010587530049 20111003MG011  2113966108P000000000147100000000014710000000000177000000000000000000000000001200N
50093152240001670010587530049 20111003MG011  2113966403P000000006917300000000691730000000008301000000000000000000000000001200N
500422868200014585010158      20111003RJ011  2113975403P000000002504800000000250480000000000000000000000000000000000000000000N
50081445000001090010115290044 20111003MG011  2113986403P000000015031400000001503140000000018038000000000000000000000000001200N
50089119260001400010416380077 20111003MG011  2113996403P000000002015300000000201530000000002418000000000000000000000000001200N
500140409700016085975811      20111003RJ011  2114005403P000000003740000000000374000000000000000000000000000000000000000000000N
50262392100001203676478720080 20111003MG011  2114016108P000000000499200000000049920000000000000000000000000000000000000000000N
50262392100001203676478720080 20111003MG011  2114016108P000000002201000000000220100000000002641000000000000000000000000001200N
50262392100001203676478720080 20111003MG011  2114016403P000000019700800000001970080000000023641000000000000000000000000001200N
50086004330001900010266320090 20111003MG011  2114026403P000000002860000000000286000000000003432000000000000000000000000001200N
502985655600016681138850      20111003RJ011  2114035102P000000000577600000000057760000000000000000000000000000000000000000000N
502985655600016681138850      20111003RJ011  2114035403P000000005091100000000509110000000000000000000000000000000000000000000N
502985655600016681138850      20111003RJ011  2114035102P000000000618400000000061840000000001237000000000000000000000000001900N
501219526200013879103659      20111003RJ011  2114045403P000000022340000000002234000000000000000000000000000000000000000000000N
501219526200013879103659      20111003RJ011  2114045102P000000001250000000000125000000000002375000000000000000000000000001900N
5018338178000102ISENTO        20111003MG011  2114056108P000000005723000000000572300000000006868000000000000000000000000001200N
500297025100012475775539      20111003RJ011  2114065403P000000004172400000000417240000000000000000000000000000000000000000000N
500297025100012475775539      20111003RJ011  2114065102P000000000168900000000016890000000000338000000000000000000000000001900N
5004249257000132ISENTO        20111003RJ011  2114075102P000000007977500000000797750000000015157000000000000000000000000001900N
5004249257000132ISENTO        20111003RJ011  2114085102P000000041676000000004167600000000079184000000000000000000000000001900N
502769903200018380900031      20111004RJ011  2114095403P000000004209700000000420970000000000000000000000000000000000000000000N
502769903200018380900031      20111004RJ011  2114095102P000000000636000000000063600000000001208000000000000000000000000001900N
5017947615000122ISENTO        20111004MG011  2114106108P000000001602300000000160230000000001923000000000000000000000000001200N
50711346880001403678381750050 20111004MG011  2114116108P000000002870500000000287050000000003445000000000000000000000000001200N
5005797356000111ISENTO        20111004RJ011  2114125403P000000009063500000000906350000000000000000000000000000000000000000000N
50048505560001285112320660032 20111004MG011  2114136108P000000000079800000000007980000000000101000000000000000000000000001200N
50048505560001285112320660032 20111004MG011  2114136403P000000002112000000000211200000000002668000000000000000000000000001200N
500141657600010586045893      20111004RJ011  2114145403P000000006549700000000654970000000000000000000000000000000000000000000N
500141657600010586045893      20111004RJ011  2114145102P000000000041800000000004180000000000084000000000000000000000000001900N
503014694800011080837348      20111004RJ011  2114155403P000000002854600000000285460000000000000000000000000000000000000000000N
503014694800011080837348      20111004RJ011  2114155102P000000000180000000000018000000000000342000000000000000000000000001900N
500467991000010177260374      20111004RJ011  2114165102P000000000033400000000003340000000000000000000000000000000000000000000N
500467991000010177260374      20111004RJ011  2114165403P000000004688600000000468860000000000000000000000000000000000000000000N
501335807800012479317152      20111004RJ011  2114175403P000000001919100000000191910000000000000000000000000000000000000000000N
501335807800012479317152      20111004RJ011  2114175102P000000001068400000000106840000000002030000000000000000000000000001900N
5036323780000158081518641     20111004ES011  2114186108P000000000386400000000038640000000000270000000000000000000000000000700N
5036323780000158081518641     20111004ES011  2114186403P000000002655600000000265560000000001859000000000000000000000000000700N
5013601742000114082789754     20111004ES011  2114196403P000000002206100000000220610000000001544000000000000000000000000000700N
500042878700019785354388      20111004RJ011  2114205403P000000001958800000000195880000000000000000000000000000000000000000000N
500042878700019785354388      20111004RJ011  2114205102P000000000225100000000022510000000000450000000000000000000000000001900N
501191445000010679046965      20111004RJ011  2114215403P000000004694000000000469400000000000000000000000000000000000000000000N
5009029238000114ISENTO        20111004ES011  2114226108P000000004407000000000440700000000003247000000000000000000000000000700N
5011120153000199ISENTO        20111004RJ011  2114235403P000000000000000000000000000000000000000000000000000000000000000000000S
502785141900010381151962      20111004RJ011  2114245403P000000010414000000001041400000000000000000000000000000000000000000000N
502785141900010381151962      20111004RJ011  2114245102P000000000192000000000019200000000000365000000000000000000000000001900N
500516468100014777454713      20111004RJ011  2114255403P000000004537200000000453720000000000000000000000000000000000000000000N
500516468100014777454713      20111004RJ011  2114255102P000000000119700000000011970000000000239000000000000000000000000001900N
5036285484000100ISENTO        20111004RJ011  2114265403P000000553905000000055390500000000000000000000000000000000000000000000N
503968560700019885373072      20111004RJ011  2114275403P000000003269800000000326980000000000000000000000000000000000000000000N
500926927700019978429780      20111004RJ011  2114285403P000000002600000000000260000000000000000000000000000000000000000000000N
5011120153000199ISENTO        20111004RJ011  2114295403P000000000817600000000081760000000000000000000000000000000000000000000N
500071065800019785342169      20111004RJ011  2114305403P000000001230400000000123040000000000000000000000000000000000000000000N
5029138377000193ISENTO        20111004RJ011  2114315403P000000002392700000000239270000000000000000000000000000000000000000000N
5010772651000153ISENTO        20111004MG011  2114326108P000000004032700000000403270000000004839000000000000000000000000001200N
503941695300017084469629      20111004RJ011  2114335403P000000003234500000000323450000000000000000000000000000000000000000000N
500849091200010978249153      20111004RJ011  2114345403P000000007677100000000767710000000000000000000000000000000000000000000N
500849091200010978249153      20111004RJ011  2114345102P000000000502000000000050200000000001004000000000000000000000000001900N
500849091200010978249153      20111004RJ011  2114355403P000000000414200000000041420000000000000000000000000000000000000000000N
5039309190000169081621736     20111004ES011  2114366108P000000000000000000000000000000000000000000000000000000000000000000000S
5039309190000169081621736     20111004ES011  2114366403P000000000000000000000000000000000000000000000000000000000000000000000S
5039309190000169081621736     20111004ES011  2114376108P000000000101400000000010140000000000071000000000000000000000000000700N
5039309190000169081621736     20111004ES011  2114376403P000000002615100000000261510000000001815000000000000000000000000000700N
50081445000001090010115290044 20111004MG011  2114386108P000000000219600000000021960000000000264000000000000000000000000001200N
50081445000001090010115290044 20111004MG011  2114386403P000000004906400000000490640000000005888000000000000000000000000001200N
50428885780001765218015420027 20111004MG011  2114396403P000000004718000000000471800000000006291000000000000000000000000001200N
503150241200015384056405      20111004RJ011  2114405403P000000005784900000000578490000000000000000000000000000000000000000000N
500563549300015077542183      20111004RJ011  2114415403P000000001828500000000182850000000000000000000000000000000000000000000N
500563549300015077542183      20111004RJ011  2114415102P000000000101900000000010190000000000194000000000000000000000000001900N
50076309890001660153872700055 20111004MG011  2114426108P000000000194700000000019470000000000000000000000000000000000000000000N
50076309890001660153872700055 20111004MG011  2114426108P000000000206700000000020670000000000248000000000000000000000000001200N
50076309890001660153872700055 20111004MG011  2114426403P000000004204100000000420410000000005045000000000000000000000000001200N
50176515060001630153985300095 20111004MG011  2114436108P000000001499900000000149990000000000000000000000000000000000000000000N
50176515060001630153985300095 20111004MG011  2114436108P000000000972800000000097280000000001229000000000000000000000000001200N
50176515060001630153985300095 20111004MG011  2114436403P000000001896000000000189600000000002395000000000000000000000000001200N
5018338178000102ISENTO        20111004MG011  2114446108P000000003730400000000373040000000004476000000000000000000000000001200N
503629126800017784256269      20111004RJ011  2114455403P000000001577600000000157760000000000000000000000000000000000000000000N
50073761770001362903491760079 20111004MG011  2114466108P000000000252000000000025200000000000302000000000000000000000000001200N
50073761770001362903491760079 20111004MG011  2114466403P000000003795000000000379500000000004554000000000000000000000000001200N
5010470889000124082582980     20111004ES011  2114476403P000000003988300000000398830000000002792000000000000000000000000000700N
502960729800018481079072      20111004RJ011  2114485403P000000006706100000000670610000000000000000000000000000000000000000000N
502960729800018481079072      20111004RJ011  2114485102P000000000042000000000004200000000000080000000000000000000000000001900N
5030098479000101ISENTO        20111004RJ011  2114495403P000000010875000000001087500000000000000000000000000000000000000000000N
5011504310000160ISENTO        20111004RJ011  2114505403P000000001318400000000131840000000000000000000000000000000000000000000N
50081445000001090010115290044 20111004MG011  2114516108P000000000094100000000009410000000000113000000000000000000000000001200N
50081445000001090010115290044 20111004MG011  2114516403P000000002578800000000257880000000003095000000000000000000000000001200N
501090190000016378770880      20111004RJ011  2114525403P000000003155600000000315560000000000000000000000000000000000000000000N
501090190000016378770880      20111004RJ011  2114525102P000000000201500000000020150000000000383000000000000000000000000001900N
501081538100011078791349      20111004RJ011  2114535403P000000002314000000000231400000000000000000000000000000000000000000000N
501081538100011078791349      20111004RJ011  2114535102P000000000104400000000010440000000000198000000000000000000000000001900N
5011504310000160ISENTO        20111004RJ011  2114545403P000000002700000000000270000000000000000000000000000000000000000000000N
502961808900072184578797      20111004RJ011  2114555403P000000003346600000000334660000000000000000000000000000000000000000000N
5018338178000102ISENTO        20111004MG011  2114566108P000000001093200000000109320000000001312000000000000000000000000001200N
503163491800011610002834      20111004RJ011  2114575403P000000005541000000000554100000000000000000000000000000000000000000000N
503163491800011610002834      20111004RJ011  2114575102P000000000580500000000058050000000001103000000000000000000000000001900N
501153961500010778992450      20111004RJ011  2114585403P000000003979700000000397970000000000000000000000000000000000000000000N
500513735200010777414053      20111004RJ011  2114595403P000000009535100000000953510000000000000000000000000000000000000000000N
500513735200010777414053      20111004RJ011  2114605102P000000001200000000000120000000000002280000000000000000000000000001900N
5000496825000149081751753     20111004ES011  2114616108P000000000679000000000067900000000000475000000000000000000000000000700N
5000496825000149081751753     20111004ES011  2114616403P000000003747700000000374770000000002623000000000000000000000000000700N
503922203900019984563250      20111004RJ011  2114625403P000000001994600000000199460000000000000000000000000000000000000000000N
503922203900019984563250      20111004RJ011  2114625102P000000000234900000000023490000000000446000000000000000000000000001900N
503217334600018883594039      20111004RJ011  2114635403P000000004795100000000479510000000000000000000000000000000000000000000N
503217334600018883594039      20111004RJ011  2114635102P000000000237400000000023740000000000451000000000000000000000000001900N
500873552700017678268204      20111004RJ011  2114645403P000000001669600000000166960000000000000000000000000000000000000000000N
500873552700017678268204      20111004RJ011  2114645102P000000000710700000000071070000000001350000000000000000000000000001900N
50095521330001450010705170071 20111004MG011  2114656403P000000003300000000000330000000000003960000000000000000000000000001200N
5010470889000124082582980     20111004ES011  2114666403P000000001233300000000123330000000000863000000000000000000000000000700N
507367962300010685172107      20111004RJ011  2114675403P000000012129200000001212920000000000000000000000000000000000000000000N
500873552700017678268204      20111004RJ011  2114685403P000000002205900000000220590000000000000000000000000000000000000000000N
5003773834008021ISENTO        20111004MG011  2114696108P000000002160000000000216000000000002592000000000000000000000000001200N
500818316000012578141964      20111004RJ011  2114705403P000000002880000000000288000000000000000000000000000000000000000000000N
500696393300016077796363      20111004RJ011  2114715910P000000001200000000000120000000000002280000000000000000000000000001900N
500696393300016077796363      20111004RJ011  2114725403P000000023074900000002307490000000000000000000000000000000000000000000N
5018338178000102ISENTO        20111004MG011  2114736108P000000021275400000002127540000000025530000000000000000000000000001200N
5018338178000102ISENTO        20111004MG011  2114746108P000000000707100000000070710000000000849000000000000000000000000001200N
5018338178000102ISENTO        20111004MG011  2114756108P000000000142700000000014270000000000171000000000000000000000000001200N
503163491800011610002834      20111004RJ011  2114765102P000000002820000000000282000000000005358000000000000000000000000001900N
503105598100010681024170      20111004RJ011  2114775403P000000004830800000000483080000000000000000000000000000000000000000000N
501078988600015878759852      20111004RJ011  2114785403P000000000455400000000045540000000000000000000000000000000000000000000N
501078988600015878759852      20111004RJ011  2114785102P000000001794000000000179400000000003409000000000000000000000000001900N
502859688000012082940251      20111004RJ011  2114795403P000000003055200000000305520000000000000000000000000000000000000000000N
502859688000012082940251      20111004RJ011  2114795102P000000001000800000000100080000000001902000000000000000000000000001900N
5018114264000646ISENTO        20111004MG011  2114806108P000000000136000000000013600000000000163000000000000000000000000001200N
5019279827000104ISENTO        20111004MG011  2114816108P000000000720000000000072000000000000864000000000000000000000000001200N
5018114264000646ISENTO        20111004MG011  2114826108P000000001234000000000123400000000001481000000000000000000000000001200N
5011762815000124ISENTO        20111004RJ011  2114835403P000000004272000000000427200000000000000000000000000000000000000000000N
503055115400013280842023      20111004RJ011  2114845403P000000004422500000000442250000000000000000000000000000000000000000000N
50237996870001725210484310014 20111004MG011  2114856403P000000007228600000000722860000000008674000000000000000000000000001200N
502829968300014981112576      20111004RJ011  2114865403P000000002661300000000266130000000000000000000000000000000000000000000N
50662528670001425217619750021 20111004MG011  2114876403P000000004384000000000438400000000005261000000000000000000000000001200N
501325804200017979346640      20111004RJ011  2114885403P000000002686300000000268630000000000000000000000000000000000000000000N
503055115400013280842023      20111004RJ011  2114895403P000000001650000000000165000000000000000000000000000000000000000000000N
500896683700010078329459      20111004RJ011  2114905403P000000004736500000000473650000000000000000000000000000000000000000000N
503967922000012984990078      20111004RJ011  2114915403P000000003708200000000370820000000000000000000000000000000000000000000N
5028646628000188ISENTO        20111004RJ011  2114925403P000000003625300000000362530000000000000000000000000000000000000000000N
50024146980001173670934220019 20111004MG011  2114936108P000000016882700000001688270000000020259000000000000000000000000001200N
506874939900014184435473      20111004RJ011  2114945403P000000009265200000000926520000000000000000000000000000000000000000000N
506874939900014184435473      20111004RJ011  2114945102P000000000034500000000003450000000000066000000000000000000000000001900N
500195626100014286216159      20111004RJ011  2114955403P000000006908600000000690860000000000000000000000000000000000000000000N
5008379755000150082420351     20111004ES011  2114966403P000000004676100000000467610000000002758000000000000000000000000000700N
50091493000001010010483320005 20111004MG011  2114976403P000000003320000000000332000000000003984000000000000000000000000001200N
501058994000011178687070      20111004RJ011  2114985403P000000006750500000000675050000000000000000000000000000000000000000000N
501058994000011178687070      20111004RJ011  2114985102P000000000450000000000045000000000000855000000000000000000000000001900N
507367962300010685172107      20111004RJ011  2114995403P000000007590500000000759050000000000000000000000000000000000000000000N
501049396900010378642394      20111004RJ011  2115005403P000000007906500000000790650000000000000000000000000000000000000000000N
5011461379000153ISENTO        20111004RJ011  2115015403P000000034646600000003464660000000000000000000000000000000000000000000N
5011461379000153ISENTO        20111004RJ011  2115015102P000000039811300000003981130000000075641000000000000000000000000001900N
502964462200013481105715      20111004RJ011  2115025403P000000002204900000000220490000000000000000000000000000000000000000000N
5018338178000102ISENTO        20111004MG011  2115046108P000000005322000000000532200000000006386000000000000000000000000001200N
50093152240001670010587530049 20111004MG011  2115056403P000000001752400000000175240000000002103000000000000000000000000001200N
501180457500018379042323      20111004RJ011  2115065403P000000004401900000000440190000000000000000000000000000000000000000000N
501180457500018379042323      20111004RJ011  2115065102P000000000111500000000011150000000000223000000000000000000000000001900N
500744234400010877930906      20111004RJ011  2115075403P000000005404200000000540420000000000000000000000000000000000000000000N
50428885780001765218015420027 20111004MG011  2115086403P000000002495000000000249500000000003327000000000000000000000000001200N
502895201800010210005027      20111004RJ011  2115095403P000000001753500000000175350000000000000000000000000000000000000000000N
502895201800010210005027      20111004RJ011  2115095102P000000000192000000000019200000000000365000000000000000000000000001900N
5004249257000132ISENTO        20111004RJ011  2115105403P000000190786000000019078600000000000000000000000000000000000000000000N
5001395205000186ISENTO        20111004RJ011  2115115102P000000001782800000000178280000000000000000000000000000000000000000000N
5001395205000186ISENTO        20111004RJ011  2115115403P000000009018900000000901890000000000000000000000000000000000000000000N
503163491800011610002834      20111004RJ011  2115125403P000000002328000000000232800000000000000000000000000000000000000000000N
5028930451000147ISENTO        20111004RJ011  2115135403P000000003371300000000337130000000000000000000000000000000000000000000N
5000368318000391ISENTO        20111004RJ011  2115145403P000000001866400000000186640000000000000000000000000000000000000000000N
5000368318000391ISENTO        20111004RJ011  2115145102P000000000580000000000058000000000001102000000000000000000000000001900N
5027130145000163ISENTO        20111004ES011  2115156108P000000008208600000000820860000000005746000000000000000000000000000700N
5027082403000183ISENTO        20111004ES011  2115166108P000000013610000000001361000000000009527000000000000000000000000000700N
5005953926000115ISENTO        20111004ES011  2115176108P000000000000000000000000000000000000000000000000000000000000000000000S
5001327887000351ISENTO        20111004MG011  2115186108P000000002330000000000233000000000002796000000000000000000000000001200N
5028612802000171ISENTO        20111004RJ011  2115195403P000000004424100000000442410000000000000000000000000000000000000000000N
5028612802000171ISENTO        20111004RJ011  2115195102P000000000054100000000005410000000000108000000000000000000000000001900N
5029115441000110ISENTO        20111004RJ011  2115205403P000000024496300000002449630000000000000000000000000000000000000000000N
501074939400013978945516      20111004RJ011  2115215403P000000008438700000000843870000000000000000000000000000000000000000000N
501074939400013978945516      20111004RJ011  2115215102P000000000097800000000009780000000000186000000000000000000000000001900N
501304929200010779264997      20111004RJ011  2115225403P000000002153600000000215360000000000000000000000000000000000000000000N
500606161400016077675957      20111004RJ011  2115235403P000000002685200000000268520000000000000000000000000000000000000000000N
501119480400019578916524      20111004RJ011  2115245403P000000003631200000000363120000000000000000000000000000000000000000000N
500090212500010785298879      20111004RJ011  2115255102P000000002520000000000252000000000004788000000000000000000000000001900N
501078988600015878759852      20111004RJ011  2115265403P000000000400800000000040080000000000000000000000000000000000000000000N
501078988600015878759852      20111004RJ011  2115265102P000000000221400000000022140000000000421000000000000000000000000001900N
500930211600015078514981      20111004RJ011  2115275403P000000001800000000000180000000000000000000000000000000000000000000000N
502859688000012082940251      20111004RJ011  2115285403P000000000882600000000088260000000000000000000000000000000000000000000N
502925908200017580882572      20111004RJ011  2115295403P000000001677600000000167760000000000000000000000000000000000000000000N
502925908200017580882572      20111004RJ011  2115295102P000000000380800000000038080000000000724000000000000000000000000001900N
5010699632000149082615241     20111004ES011  2115306108P000000000154500000000015450000000000108000000000000000000000000000700N
5010699632000149082615241     20111004ES011  2115306403P000000001950800000000195080000000001326000000000000000000000000000700N
500141505500012585965166      20111004RJ011  2115315910P000000000414200000000041420000000000000000000000000000000000000000000N
500141505500012585965166      20111004RJ011  2115315910P000000000353500000000035350000000000919000000000000000000000000002600N
500141505500012585965166      20111004RJ011  2115325403P000000003472200000000347220000000000000000000000000000000000000000000N
500141505500012585965166      20111004RJ011  2115325102P000000000356500000000035650000000000713000000000000000000000000001900N
502985655600016681138850      20111004RJ011  2115335403P000000001368400000000136840000000000000000000000000000000000000000000N
502985655600016681138850      20111004RJ011  2115335102P000000002382800000000238280000000004766000000000000000000000000001900N
5005797356000111ISENTO        20111004RJ011  2115345403P000000017603000000001760300000000000000000000000000000000000000000000N
5005797356000111ISENTO        20111004RJ011  2115345102P000000000344000000000034400000000000654000000000000000000000000001900N
50088027230001160010361630034 20111004MG011  2115356403P000000003299000000000329900000000004167000000000000000000000000001200N
50260393210001932460612370086 20111004MG011  2115366403P000000001047800000000104780000000001257000000000000000000000000001200N
501058994000011178687070      20111004RJ011  2115375102P000000000842000000000084200000000000000000000000000000000000000000000N
501058994000011178687070      20111004RJ011  2115375403P000000004398700000000439870000000000000000000000000000000000000000000N
501058994000011178687070      20111004RJ011  2115375102P000000000619000000000061900000000001176000000000000000000000000001900N
500879882200017178294302      20111004RJ011  2115385403P000000005835100000000583510000000000000000000000000000000000000000000N
501067140600015078706694      20111004RJ011  2115395403P000000005349600000000534960000000000000000000000000000000000000000000N
501067140600015078706694      20111004RJ011  2115395102P000000000420600000000042060000000000870000000000000000000000000001900N
500299975400012285875213      20111004RJ011  2115405403P000000007685100000000768510000000000000000000000000000000000000000000N
500203623800010084698652      20111004RJ011  2115415403P000000002927800000000292780000000000000000000000000000000000000000000N
500203623800010084698652      20111004RJ011  2115415102P000000000043000000000004300000000000082000000000000000000000000001900N
501314059100014479285005      20111004RJ011  2115425403P000000002640000000000264000000000000000000000000000000000000000000000N
503954079400011184530387      20111005RJ011  2115435403P000000003732900000000373290000000000000000000000000000000000000000000N
503954079400011184530387      20111005RJ011  2115435102P000000000195300000000019530000000000390000000000000000000000000001900N
503954094300014284823430      20111005RJ011  2115445403P000000002211500000000221150000000000000000000000000000000000000000000N
500155960300019085766643      20111005RJ011  2115455403P000000004312400000000431240000000000000000000000000000000000000000000N
501183221100010779048771      20111005RJ011  2115465403P000000004025000000000402500000000000000000000000000000000000000000000N
501183221100010779048771      20111005RJ011  2115465102P000000000474000000000047400000000000901000000000000000000000000001900N
500299975400012285875213      20111005RJ011  2115475403P000000001199400000000119940000000000000000000000000000000000000000000N
500330205500014484578444      20111005RJ011  2115485403P000000002545900000000254590000000000000000000000000000000000000000000N
500330205500014484578444      20111005RJ011  2115485102P000000000129500000000012950000000000246000000000000000000000000001900N
5002911953000137ISENTO        20111005RJ011  2115495102P000000001555200000000155520000000002955000000000000000000000000001900N
50075515380001331333693000095 20111005MG011  2115506108P000000000829200000000082920000000000995000000000000000000000000001200N
50075515380001331333693000095 20111005MG011  2115506403P000000005292900000000529290000000006351000000000000000000000000001200N
500422868200014585010158      20111005RJ011  2115515403P000000002053900000000205390000000000000000000000000000000000000000000N
5012097798000110ISENTO        20111005RJ011  2115525403P000000079440000000007944000000000000000000000000000000000000000000000N
5028615557000156ISENTO        20111005RJ011  2115535403P000000003780000000000378000000000000000000000000000000000000000000000N
5028615557000156ISENTO        20111005RJ011  2115545403P000000006876000000000687600000000000000000000000000000000000000000000N
5032412819000748ISENTO        20111005RJ011  2115555403P000000002530900000000253090000000000000000000000000000000000000000000N
5017710690000175ISENTO        20111005MG011  2115566108P000000001188000000000118800000000001426000000000000000000000000001200N
5028615557000156ISENTO        20111005RJ011  2115575403P000000008764800000000876480000000000000000000000000000000000000000000N
5011424305000147082682623     20111005ES011  2115586403P000000002075100000000207510000000001422000000000000000000000000000700N
500282207100010375839677      20111005RJ011  2115595403P000000001995500000000199550000000000000000000000000000000000000000000N
500282207100010375839677      20111005RJ011  2115595102P000000000034800000000003480000000000066000000000000000000000000001900N
5031431679000105ISENTO        20111005RJ011  2115605403P000000009610000000000961000000000000000000000000000000000000000000000N
50048505560001285112320660032 20111005MG011  2115616108P000000000532000000000053200000000000672000000000000000000000000001200N
50048505560001285112320660032 20111005MG011  2115616403P000000002184300000000218430000000002759000000000000000000000000001200N
5028615557000156ISENTO        20111005RJ011  2115625403P000000021340600000002134060000000000000000000000000000000000000000000N
5028615557000156ISENTO        20111005RJ011  2115635403P000000004872000000000487200000000000000000000000000000000000000000000N
5028615557000156ISENTO        20111005RJ011  2115635102P000000004297500000000429750000000008165000000000000000000000000001900N
500174555100014785420941      20111005RJ011  2115645403P000000000940800000000094080000000000000000000000000000000000000000000N
503204324200015983596007      20111005RJ011  2115655403P000000001895100000000189510000000000000000000000000000000000000000000N
500174555100014785420941      20111005RJ011  2115665403P000000006034100000000603410000000000000000000000000000000000000000000N
501078988600015878759852      20111005RJ011  2115675403P000000007420800000000742080000000000000000000000000000000000000000000N
5006942434000197082279764     20111005ES011  2115686108P000000000894500000000089450000000000588000000000000000000000000000700N
5006942434000197082279764     20111005ES011  2115686403P000000001194300000000119430000000000826000000000000000000000000000700N
50050799570001997131776890050 20111005MG011  2115696108P000000000510000000000051000000000000612000000000000000000000000001200N
50050799570001997131776890050 20111005MG011  2115696403P000000008651600000000865160000000010382000000000000000000000000001200N
503089449700010880895879      20111005RJ011  2115705403P000000005467300000000546730000000000000000000000000000000000000000000N
500481942200014477294430      20111005RJ011  2115715403P000000004789200000000478920000000000000000000000000000000000000000000N
500090212500010785298879      20111005RJ011  2115725403P000000002394000000000239400000000000000000000000000000000000000000000N
500295091600013885699520      20111005RJ011  2115735403P000000005446200000000544620000000000000000000000000000000000000000000N
503035698400010980909969      20111005RJ011  2115745403P000000004646400000000464640000000000000000000000000000000000000000000N
5029138385000806ISENTO        20111005RJ011  2115755949P000000006714000000000671400000000000000000000000000000000000000000000N
5038680013000121ISENTO        20111005MG011  2115766108P000000010410900000001041090000000012493000000000000000000000000001200N
5011247992000172ISENTO        20111005MG011  2115776108P000000002090500000000209050000000002509000000000000000000000000001200N
500192029200014385228439      20111005RJ011  2115785403P000000006991500000000699150000000000000000000000000000000000000000000N
500192029200014385228439      20111005RJ011  2115785102P000000000463200000000046320000000000880000000000000000000000000001900N
50135823060001450017668530053 20111005MG011  2115796108P000000000252000000000025200000000000302000000000000000000000000001200N
50135823060001450017668530053 20111005MG011  2115796403P000000005826000000000582600000000006991000000000000000000000000001200N
5038680013000121ISENTO        20111005MG011  2115806108P000000014407700000001440770000000017289000000000000000000000000001200N
5018116129000125ISENTO        20111005MG011  2115816108P000000001524000000000152400000000001829000000000000000000000000001200N
5018116129000125ISENTO        20111005MG011  2115826108P000000014598600000001459860000000017518000000000000000000000000001200N
503586309100017383597097      20111005RJ011  2115835403P000000002171400000000217140000000000000000000000000000000000000000000N
50218785900001207134933760062 20111005MG011  2115846403P000000002305200000000230520000000002766000000000000000000000000001200N
5029172475000147ISENTO        20111005RJ011  2115855403P000000013932000000001393200000000000000000000000000000000000000000000N
5029828969000137ISENTO        20111005RJ011  2115865403P000000022267500000002226750000000000000000000000000000000000000000000N
5029828969000137ISENTO        20111005RJ011  2115865102P000000003850200000000385020000000007315000000000000000000000000001900N
502925928000013980882661      20111005RJ011  2115875102P000000001440000000000144000000000002736000000000000000000000000001900N
5039157029000117ISENTO        20111005RJ011  2115885403P000000051682600000005168260000000000000000000000000000000000000000000N
5039157029000117ISENTO        20111005RJ011  2115895403P000000001228000000000122800000000000000000000000000000000000000000000N
5029115441000110ISENTO        20111005RJ011  2115905403P000000001067200000000106720000000000000000000000000000000000000000000N
5017947615000122ISENTO        20111005MG011  2115916108P000000001903700000000190370000000002284000000000000000000000000001200N
5012292556000188ISENTO        20111005RJ011  2115925403P000000006534200000000653420000000000000000000000000000000000000000000N
500712468000010277839860      20111005RJ011  2115935403P000000004293600000000429360000000000000000000000000000000000000000000N
5002911953000137ISENTO        20111005RJ011  2115945403P000000005550900000000555090000000000000000000000000000000000000000000N
5012292556000188ISENTO        20111005RJ011  2115955403P000000008676900000000867690000000000000000000000000000000000000000000N
5011247992000172ISENTO        20111005MG011  2115966108P000000035209100000003520910000000042251000000000000000000000000001200N
5033609504000162ISENTO        20111005RJ011  2115975102P000000008137100000000813710000000000000000000000000000000000000000000N
5033609504000162ISENTO        20111005RJ011  2115975102P000000024386700000002438670000000046335000000000000000000000000001900N
5028814127000163ISENTO        20111005RJ011  2115985403P000000003630000000000363000000000000000000000000000000000000000000000N
5033609504000162ISENTO        20111005RJ011  2115995403P000000012157000000001215700000000000000000000000000000000000000000000N
5004249257000132ISENTO        20111005RJ011  2116005403P000000001440000000000144000000000000000000000000000000000000000000000N
5004249257000132ISENTO        20111005RJ011  2116005102P000000000660000000000066000000000001254000000000000000000000000001900N
50710075460001123848347810033 20111005MG011  2116016403P000000002550000000000255000000000003060000000000000000000000000001200N
500958189800010378513772      20111005RJ011  2116025403P000000002539900000000253990000000000000000000000000000000000000000000N
500958189800010378513772      20111005RJ011  2116025102P000000000082600000000008260000000000157000000000000000000000000001900N
502954272700018280871066      20111005RJ011  2116035403P000000004133800000000413380000000000000000000000000000000000000000000N
502954272700018280871066      20111005RJ011  2116035102P000000000447600000000044760000000000850000000000000000000000000001900N
504037221100017081161003      20111005RJ011  2116045403P000000008347700000000834770000000000000000000000000000000000000000000N
504037221100017081161003      20111005RJ011  2116045102P000000000580000000000058000000000001102000000000000000000000000001900N
506864408700017384575798      20111005RJ011  2116055403P000000003629400000000362940000000000000000000000000000000000000000000N
506864408700017384575798      20111005RJ011  2116055102P000000000689700000000068970000000001310000000000000000000000000001900N
500242697900019075716370      20111005RJ011  2116065403P000000001874000000000187400000000000000000000000000000000000000000000N
500100001800015685227459      20111005RJ011  2116075403P000000003243200000000324320000000000000000000000000000000000000000000N
500100001800015685227459      20111005RJ011  2116075102P000000000249600000000024960000000000474000000000000000000000000001900N
5003352245000176082006806     20111005ES011  2116086108P000000000262100000000026210000000000183000000000000000000000000000700N
5003352245000176082006806     20111005ES011  2116086403P000000003604600000000360460000000002523000000000000000000000000000700N
500900679600016478345535      20111005RJ011  2116095403P000000001809600000000180960000000000000000000000000000000000000000000N
502890403500017481118841      20111005RJ011  2116105403P000000002439600000000243960000000000000000000000000000000000000000000N
5021177159000156ISENTO        20111005MG011  2116116108P000000003456000000000345600000000004147000000000000000000000000001200N
500065778900015884531251      20111005RJ011  2116125403P000000001715900000000171590000000000000000000000000000000000000000000N
500065778900015884531251      20111005RJ011  2116125102P000000000225600000000022560000000000429000000000000000000000000001900N
50093152240001670010587530049 20111005MG011  2116136108P000000000041400000000004140000000000000000000000000000000000000000000N
50093152240001670010587530049 20111005MG011  2116136108P000000001050100000000105010000000001260000000000000000000000000001200N
50093152240001670010587530049 20111005MG011  2116136403P000000002096500000000209650000000002516000000000000000000000000001200N
503628484200016085342347      20111005RJ011  2116145403P000000001178300000000117830000000000000000000000000000000000000000000N
503628484200016085342347      20111005RJ011  2116145102P000000000313500000000031350000000000627000000000000000000000000001900N
502923546200017080864620      20111005RJ011  2116155403P000000004432200000000443220000000000000000000000000000000000000000000N
502923546200017080864620      20111005RJ011  2116155102P000000000626000000000062600000000001189000000000000000000000000001900N
50428885780001765218015420027 20111005MG011  2116166403P000000002134300000000213430000000002846000000000000000000000000001200N
5033609504000162ISENTO        20111005RJ011  2116175403P000000056365400000005636540000000000000000000000000000000000000000000N
5033609504000162ISENTO        20111005RJ011  2116175102P000000016830200000001683020000000031977000000000000000000000000001900N
5021187695000132ISENTO        20111005MG011  2116186108P000000000180000000000018000000000000000000000000000000000000000000000N
503651389300011684597694      20111005RJ011  2116195403P000000005705600000000570560000000000000000000000000000000000000000000N
5011301600000106ISENTO        20111005RJ011  2116205403P000000005460500000000546050000000000000000000000000000000000000000000N
5011301600000106ISENTO        20111005RJ011  2116205102P000000000508600000000050860000000000966000000000000000000000000001900N
5032410615000182ISENTO        20111005RJ011  2116215403P000000010068800000001006880000000000000000000000000000000000000000000N
5032410615000182ISENTO        20111005RJ011  2116215102P000000002232900000000223290000000004466000000000000000000000000001900N
50023207270001815117319280005 20111005MG011  2116226108P000000000318000000000031800000000000382000000000000000000000000001200N
50023207270001815117319280005 20111005MG011  2116226403P000000002505200000000250520000000003006000000000000000000000000001200N
50260393210001932460612370086 20111005MG011  2116236108P000000000920200000000092020000000001104000000000000000000000000001200N
50260393210001932460612370086 20111005MG011  2116236403P000000004508400000000450840000000005410000000000000000000000000001200N
503150241200015384056405      20111005RJ011  2116245403P000000004536600000000453660000000000000000000000000000000000000000000N
50417946600001790167925840070 20111005MG011  2116256108P000000000323800000000032380000000000389000000000000000000000000001200N
50417946600001790167925840070 20111005MG011  2116256403P000000002342800000000234280000000002811000000000000000000000000001200N
500382552500015476080356      20111005RJ011  2116265403P000000002015700000000201570000000000000000000000000000000000000000000N
50027381830001727210335370001 20111005MG011  2116276108P000000000104400000000010440000000000125000000000000000000000000001200N
50027381830001727210335370001 20111005MG011  2116276403P000000005412100000000541210000000006495000000000000000000000000001200N
5032430829000200082475008     20111005ES011  2116286403P000000000000000000000000000000000000000000000000000000000000000000000S
500203623800010084698652      20111005RJ011  2116295403P000000000724000000000072400000000000000000000000000000000000000000000N
500203623800010084698652      20111005RJ011  2116295102P000000001720000000000172000000000003268000000000000000000000000001900N
50093713760001870010614300045 20111005MG011  2116306108P000000000536200000000053620000000000643000000000000000000000000001200N
50093713760001870010614300045 20111005MG011  2116306403P000000001554400000000155440000000001865000000000000000000000000001200N
5032430829000200082475008     20111005ES011  2116316403P000000004580000000000458000000000003375000000000000000000000000000700N
50091827250001120010511450001 20111005MG011  2116326108P000000029115000000002911500000000034938000000000000000000000000001200N
5021587373000180ISENTO        20111005MG011  2116336108P000000014446500000001444650000000017336000000000000000000000000001200N
50429464830001613678263040052 20111005MG011  2116346108P000000002080000000000208000000000002496000000000000000000000000001200N
500534302600015677495070      20111005RJ011  2116355403P000000029531400000002953140000000000000000000000000000000000000000000N
503223686100016080870663      20111005RJ011  2116365403P000000002001400000000200140000000000000000000000000000000000000000000N
503223686100016080870663      20111005RJ011  2116365102P000000000175200000000017520000000000333000000000000000000000000001900N
501017709900015578546123      20111005RJ011  2116375403P000000002911800000000291180000000000000000000000000000000000000000000N
503053623900014180840454      20111005RJ011  2116385403P000000001602000000000160200000000000000000000000000000000000000000000N
503053623900014180840454      20111005RJ011  2116385102P000000000670800000000067080000000001275000000000000000000000000001900N
5013314882000101082780110     20111005ES011  2116396403P000000003048100000000304810000000002134000000000000000000000000000700N
5032430829000200082475008     20111005ES011  2116406403P000000025000000000002500000000000012250000000000000000000000000000700N
5029640612000120ISENTO        20111005RJ011  2116415403P000000004817000000000481700000000000000000000000000000000000000000000N
5030538011000190ISENTO        20111005RJ011  2116425403P000000029754400000002975440000000000000000000000000000000000000000000N
5030538011000190ISENTO        20111005RJ011  2116425102P000000000684300000000068430000000001300000000000000000000000000001900N
5007169382000120ISENTO        20111005RJ011  2116435403P000000002071800000000207180000000000000000000000000000000000000000000N
5012047232000184ISENTO        20111005RJ011  2116445403P000000013802900000001380290000000000000000000000000000000000000000000N
5012572766000120ISENTO        20111005MG011  2116456108P000000013341600000001334160000000016010000000000000000000000000001200N
5004249257000132ISENTO        20111006RJ011  2116465403P000000010579200000001057920000000000000000000000000000000000000000000N
501350783000015179348309      20111006RJ011  2116475102P000000000153600000000015360000000000000000000000000000000000000000000N
501350783000015179348309      20111006RJ011  2116475403P000000001045600000000104560000000000000000000000000000000000000000000N
501350783000015179348309      20111006RJ011  2116475102P000000003086200000000308620000000005864000000000000000000000000001900N
502925928000013980882661      20111006RJ011  2116485403P000000009292800000000929280000000000000000000000000000000000000000000N
502925928000013980882661      20111006RJ011  2116485102P000000001584000000000158400000000003010000000000000000000000000001900N
5004249257000132ISENTO        20111006RJ011  2116495403P000000021169100000002116910000000000000000000000000000000000000000000N
500299975400012285875213      20111006RJ011  2116505403P000000001557500000000155750000000000000000000000000000000000000000000N
500299975400012285875213      20111006RJ011  2116505102P000000000053800000000005380000000000102000000000000000000000000001900N
5031431679000105ISENTO        20111006RJ011  2116515403P000000021763800000002176380000000000000000000000000000000000000000000N
5031431679000105ISENTO        20111006RJ011  2116515102P000000001402000000000140200000000002664000000000000000000000000001900N
5028646628000188ISENTO        20111006RJ011  2116525403P000000032220000000003222000000000000000000000000000000000000000000000N
5018715458000192ISENTO        20111006MG011  2116536108P000000000730800000000073080000000000877000000000000000000000000001200N
5018338178000102ISENTO        20111006MG011  2116546108P000000000000000000000000000000000000000000000000000000000000000000000S
5018338178000102ISENTO        20111006MG011  2116556108P000000013834200000001383420000000016601000000000000000000000000001200N
5004249257000132ISENTO        20111006RJ011  2116565403P000000003382400000000338240000000000000000000000000000000000000000000N
502875376200018881132992      20111006RJ011  2116575403P000000006888000000000688800000000000000000000000000000000000000000000N
502963046400016381125333      20111006RJ011  2116585403P000000002420200000000242020000000000000000000000000000000000000000000N
5017754201000187ISENTO        20111006MG011  2116596108P000000000290000000000029000000000000348000000000000000000000000001200N
5017754201000187ISENTO        20111006MG011  2116606108P000000012670000000001267000000000015204000000000000000000000000001200N
506858395400010884775371      20111006RJ011  2116615403P000000012600000000001260000000000000000000000000000000000000000000000N
5021187695000132ISENTO        20111006MG011  2116626108P000000000788000000000078800000000000000000000000000000000000000000000N
50041377830001006291033260061 20111006MG011  2116636403P000000002105100000000210510000000002526000000000000000000000000001200N
50062237240001802332861600062 20111006MG011  2116646108P000000000415800000000041580000000000499000000000000000000000000001200N
50062237240001802332861600062 20111006MG011  2116646403P000000002664700000000266470000000003198000000000000000000000000001200N
503921646000019784353744      20111006RJ011  2116655403P000000002760000000000276000000000000000000000000000000000000000000000N
502769903200018380900031      20111006RJ011  2116665403P000000001942800000000194280000000000000000000000000000000000000000000N
502769903200018380900031      20111006RJ011  2116665102P000000000266700000000026670000000000507000000000000000000000000001900N
50223192710002287165555790154 20111006MG011  2116676108P000000001461100000000146110000000001753000000000000000000000000001200N
50223192710002287165555790154 20111006MG011  2116676403P000000000756000000000075600000000000907000000000000000000000000001200N
5028389922000151080959555     20111006ES011  2116686108P000000001334000000000133400000000000934000000000000000000000000000700N
5028389922000151080959555     20111006ES011  2116686403P000000008822700000000882270000000006090000000000000000000000000000700N
5018092825000149ISENTO        20111006MG011  2116696108P000000000257500000000025750000000000247000000000000000000000000001200N
5032412819000748ISENTO        20111006RJ011  2116705403P000000001368300000000136830000000000000000000000000000000000000000000N
5029115441000110ISENTO        20111006RJ011  2116715403P000000013436400000001343640000000000000000000000000000000000000000000N
503241003700018480476264      20111006RJ011  2116725403P000000007437800000000743780000000000000000000000000000000000000000000N
5021561543000158ISENTO        20111006MG011  2116736108P000000003458000000000345800000000004150000000000000000000000000001200N
5018338178000102ISENTO        20111006MG011  2116746108P000000001178800000000117880000000001415000000000000000000000000001200N
5032412819000748ISENTO        20111006RJ011  2116755403P000000000843000000000084300000000000000000000000000000000000000000000N
5007216764000168082305170     20111006ES011  2116766403P000000002101900000000210190000000001549000000000000000000000000000700N
5035980028000117081404379     20111006ES011  2116776108P000000000175200000000017520000000000123000000000000000000000000000700N
5035980028000117081404379     20111006ES011  2116776403P000000007825000000000782500000000005397000000000000000000000000000700N
5005440398000109082191514     20111006ES011  2116786108P000000001480000000000148000000000001036000000000000000000000000000700N
5005440398000109082191514     20111006ES011  2116786403P000000002185200000000218520000000001530000000000000000000000000000700N
5039818745000106081666896     20111006ES011  2116796403P000000004023600000000402360000000002817000000000000000000000000000700N
5031461619000127081153759     20111006ES011  2116806403P000000010345000000001034500000000007242000000000000000000000000000700N
50259492560001706996281920039 20111006MG011  2116816403P000000002691900000000269190000000003230000000000000000000000000001200N
501058994000011178687070      20111006RJ011  2116825403P000000002013000000000201300000000000000000000000000000000000000000000N
501058994000011178687070      20111006RJ011  2116825102P000000000174600000000017460000000000332000000000000000000000000001900N
5073786329000101ISENTO        20111006RJ011  2116835403P000000004024600000000402460000000000000000000000000000000000000000000N
5073786329000101ISENTO        20111006RJ011  2116835102P000000000197500000000019750000000000375000000000000000000000000001900N
5004249257000132ISENTO        20111006RJ011  2116845403P000000001678600000000167860000000000000000000000000000000000000000000N
5036285484000100ISENTO        20111006RJ011  2116855403P000000031447000000003144700000000000000000000000000000000000000000000N
5036285484000100ISENTO        20111006RJ011  2116855102P000000009487500000000948750000000018026000000000000000000000000001900N
5018092825000149ISENTO        20111006MG011  2116866108P000000001466100000000146610000000001407000000000000000000000000001200N
5017947615000122ISENTO        20111006MG011  2116876108P000000002069600000000206960000000002484000000000000000000000000001200N
50061465080001890152748510087 20111006MG011  2116886403P000000001673800000000167380000000002009000000000000000000000000001200N
5012240308000193ISENTO        20111006RJ011  2116895403P000000014472000000001447200000000000000000000000000000000000000000000N
5029115441000110ISENTO        20111006RJ011  2116905403P000000002023400000000202340000000000000000000000000000000000000000000N
502879167100013710002109      20111006RJ011  2116915403P000000005720000000000572000000000000000000000000000000000000000000000N
5011934211000118ISENTO        20111006RJ011  2116925403P000000091000000000009100000000000000000000000000000000000000000000000N
5011405835000148ISENTO        20111006RJ011  2116935403P000000002530000000000253000000000000000000000000000000000000000000000N
501406855800011379446874      20111006RJ011  2116945403P000000002596600000000259660000000000000000000000000000000000000000000N
5005054602000145082151873     20111006ES011  2116956108P000000000139600000000013960000000000000000000000000000000000000000000N
5005054602000145082151873     20111006ES011  2116956403P000000005160200000000516020000000003587000000000000000000000000000700N
50252495900001110155558580036 20111006MG011  2116966108P000000000533000000000053300000000000640000000000000000000000000001200N
50252495900001110155558580036 20111006MG011  2116966403P000000004830600000000483060000000005797000000000000000000000000001200N
5027481670000123080777163     20111006ES011  2116976403P000000003810300000000381030000000002667000000000000000000000000000700N
500392587100010484556424      20111006RJ011  2116985403P000000005961600000000596160000000000000000000000000000000000000000000N
500392587100010484556424      20111006RJ011  2116985102P000000000380500000000038050000000000723000000000000000000000000001900N
500280226300014084536385      20111006RJ011  2116995403P000000009889800000000988980000000000000000000000000000000000000000000N
500280226300014084536385      20111006RJ011  2117005403P000000007616900000000761690000000000000000000000000000000000000000000N
50079525050001030010033110077 20111006MG011  2117016108P000000000235200000000023520000000000282000000000000000000000000001200N
50079525050001030010033110077 20111006MG011  2117016403P000000003931500000000393150000000004718000000000000000000000000001200N
5005953926000115ISENTO        20111006ES011  2117026108P000000003415300000000341530000000002391000000000000000000000000000700N
5017710690000175ISENTO        20111006MG011  2117036108P000000011752500000001175250000000014103000000000000000000000000001200N
5009257605000137ISENTO        20111006MG011  2117046108P000000001992000000000199200000000002390000000000000000000000000001200N
5001648573000199ISENTO        20111006RJ011  2117055403P000000004960000000000496000000000000000000000000000000000000000000000N
5029644705000123ISENTO        20111006RJ011  2117065403P000000010526000000001052600000000000000000000000000000000000000000000N
5027715861000102ISENTO        20111006ES011  2117076108P000000023349700000002334970000000016345000000000000000000000000000700N
50713771960001860158617460090 20111006MG011  2117086403P000000004686500000000468650000000005624000000000000000000000000001200N
500904479200017078466995      20111006RJ011  2117095403P000000002251200000000225120000000000000000000000000000000000000000000N
500150623500011285998994      20111006RJ011  2117105403P000000009878400000000987840000000000000000000000000000000000000000000N
50218785900001207134933760062 20111006MG011  2117116403P000000005522400000000552240000000006627000000000000000000000000001200N
50105172400001110011024470091 20111006MG011  2117126403P000000003674900000000367490000000004642000000000000000000000000001200N
50078926290001320010095110062 20111006MG011  2117136403P000000010301800000001030180000000013004000000000000000000000000001200N
5017710690000175ISENTO        20111006MG011  2117146108P000000013816000000001381600000000016579000000000000000000000000001200N
5036401784000107ISENTO        20111006ES011  2117156108P000000007939000000000793900000000005557000000000000000000000000000700N
503159191000011081147973      20111006RJ011  2117165403P000000001816000000000181600000000000000000000000000000000000000000000N
503159191000011081147973      20111006RJ011  2117165102P000000001170000000000117000000000002223000000000000000000000000001900N
5031666548000107ISENTO        20111006RJ011  2117175102P000000005961600000000596160000000000000000000000000000000000000000000N
5031666548000107ISENTO        20111006RJ011  2117175403P000000010753100000001075310000000000000000000000000000000000000000000N
5031666548000107ISENTO        20111006RJ011  2117175102P000000003749000000000374900000000007123000000000000000000000000001900N
50177213580001065114079760021 20111006MG011  2117186108P000000000365000000000036500000000000438000000000000000000000000001200N
50177213580001065114079760021 20111006MG011  2117186403P000000004738000000000473800000000005686000000000000000000000000001200N
5035980028000117081404379     20111006ES011  2117196403P000000003728000000000372800000000002468000000000000000000000000000700N
503150241200015384056405      20111006RJ011  2117205403P000000001189000000000118900000000000000000000000000000000000000000000N
503150241200015384056405      20111006RJ011  2117205102P000000000870300000000087030000000001654000000000000000000000000001900N
500174555100014785420941      20111006RJ011  2117215403P000000002666500000000266650000000000000000000000000000000000000000000N
500174555100014785420941      20111006RJ011  2117215102P000000000115200000000011520000000000219000000000000000000000000001900N
50220232870001080154936490014 20111006MG011  2117226403P000000002751300000000275130000000003302000000000000000000000000001200N
50166038700001950150407890031 20111006MG011  2117236108P000000000100900000000010090000000000121000000000000000000000000001200N
50166038700001950150407890031 20111006MG011  2117236403P000000002297300000000229730000000002757000000000000000000000000001200N
50078926290001320010095110062 20111006MG011  2117246403P000000001846800000000184680000000002333000000000000000000000000001200N
50188832980001903674181440096 20111006MG011  2117256108P000000000054800000000005480000000000066000000000000000000000000001200N
50188832980001903674181440096 20111006MG011  2117256403P000000009447200000000944720000000011337000000000000000000000000001200N
5012917627000190082755345     20111006ES011  2117266403P000000012000800000001200080000000008007000000000000000000000000000700N
500696393300016077796363      20111006RJ011  2117275403P000000005963500000000596350000000000000000000000000000000000000000000N
5018338129000170ISENTO        20111006MG011  2117286108P000000004415000000000441500000000005298000000000000000000000000001200N
5028646628000188ISENTO        20111006RJ011  2117295102P000000000382000000000038200000000000000000000000000000000000000000000N
5028646628000188ISENTO        20111006RJ011  2117295403P000000021880000000002188000000000000000000000000000000000000000000000N
5028646628000188ISENTO        20111006RJ011  2117295102P000000005744800000000574480000000010915000000000000000000000000001900N
5029135795000208ISENTO        20111006RJ011  2117305403P000000009400000000000940000000000000000000000000000000000000000000000N
500222192500019884577693      20111006RJ011  2117315403P000000001577700000000157770000000000000000000000000000000000000000000N
500378063500014776204454      20111006RJ011  2117325403P000000003712600000000371260000000000000000000000000000000000000000000N
503228177600011380902247      20111006RJ011  2117335403P000000004178400000000417840000000000000000000000000000000000000000000N
503922203900019984563250      20111006RJ011  2117345403P000000002050600000000205060000000000000000000000000000000000000000000N
507367962300010685172107      20111006RJ011  2117355403P000000002706000000000270600000000000000000000000000000000000000000000N
5000111826000128ISENTO        20111006RJ011  2117365403P000000002091000000000209100000000000000000000000000000000000000000000N
5000111826000128ISENTO        20111006RJ011  2117365102P000000000102900000000010290000000000196000000000000000000000000001900N
502879167100013710002109      20111006RJ011  2117375102P000000000422400000000042240000000000000000000000000000000000000000000N
502879167100013710002109      20111006RJ011  2117375403P000000007551000000000755100000000000000000000000000000000000000000000N
502879167100013710002109      20111006RJ011  2117375102P000000005200000000000520000000000009880000000000000000000000000001900N
50166048600001740150295230019 20111006MG011  2117386108P000000000156600000000015660000000000188000000000000000000000000001200N
50166048600001740150295230019 20111006MG011  2117386403P000000002659200000000265920000000003191000000000000000000000000001200N
503922203900019984563250      20111006RJ011  2117395403P000000001416000000000141600000000000000000000000000000000000000000000N
50074705060001030153498800084 20111006MG011  2117406403P000000002037400000000203740000000002574000000000000000000000000001200N
5018338178000102ISENTO        20111006MG011  2117416108P000000001476000000000147600000000001771000000000000000000000000001200N
5018338178000102ISENTO        20111006MG011  2117426108P000000003416000000000341600000000004099000000000000000000000000001200N
5032412819000748ISENTO        20111006RJ011  2117435102P000000010503000000001050300000000019956000000000000000000000000001900N
5022054068000196ISENTO        20111006MG011  2117446108P000000005376100000000537610000000006451000000000000000000000000001200N
5018259374000191ISENTO        20111006MG011  2117456108P000000007540000000000754000000000009048000000000000000000000000001200N
5018715458000192ISENTO        20111006MG011  2117466108P000000003600000000000360000000000004320000000000000000000000000001200N
5011597594000186082694303     20111006ES011  2117476403P000000006677200000000667720000000004674000000000000000000000000000700N
5019578376000106ISENTO        20111006MG011  2117486108P000000005006300000000500630000000006008000000000000000000000000001200N
50074104500001007203425500004 20111006MG011  2117496403P000000003439500000000343950000000004127000000000000000000000000001200N
503923417400015484831468      20111006RJ011  2117505403P000000002000000000000200000000000000000000000000000000000000000000000N
500359893100012178306750      20111006RJ011  2117515403P000000005668800000000566880000000000000000000000000000000000000000000N
501058994000011178687070      20111006RJ011  2117525403P000000003262900000000326290000000000000000000000000000000000000000000N
501058994000011178687070      20111006RJ011  2117525102P000000000745000000000074500000000001416000000000000000000000000001900N
501058994000011178687070      20111006RJ011  2117535102P000000000555000000000055500000000000000000000000000000000000000000000N
501058994000011178687070      20111006RJ011  2117535403P000000002717000000000271700000000000000000000000000000000000000000000N
501058994000011178687070      20111006RJ011  2117535102P000000001192400000000119240000000002266000000000000000000000000001900N
50260393210001932460612370086 20111006MG011  2117546403P000000002492700000000249270000000002991000000000000000000000000001200N
503163491800011610002834      20111006RJ011  2117555403P000000007605500000000760550000000000000000000000000000000000000000000N
503163491800011610002834      20111006RJ011  2117555102P000000000500000000000050000000000000950000000000000000000000000001900N
50093152240001670010587530049 20111006MG011  2117566403P000000004752800000000475280000000005703000000000000000000000000001200N
502892852100012281032688      20111006RJ011  2117575403P000000006912900000000691290000000000000000000000000000000000000000000N
50104830120001780010998990060 20111006MG011  2117596108P000000000149000000000014900000000000000000000000000000000000000000000N
50104830120001780010998990060 20111006MG011  2117596108P000000000464400000000046440000000000619000000000000000000000000001200N
50104830120001780010998990060 20111006MG011  2117596403P000000005213900000000521390000000006952000000000000000000000000001200N
5000935358000106ISENTO        20111006RJ011  2117605403P000000036450000000003645000000000000000000000000000000000000000000000N
5005385689000133082199540     20111006ES011  2117616403P000000007579400000000757940000000005260000000000000000000000000000700N
5027443142000180080068472     20111006ES011  2117626108P000000000193200000000019320000000000135000000000000000000000000000700N
5027443142000180080068472     20111006ES011  2117626403P000000002654400000000265440000000001815000000000000000000000000000700N
5011319172000149082671443     20111006ES011  2117636108P000000000187500000000018750000000000131000000000000000000000000000700N
5011319172000149082671443     20111006ES011  2117636403P000000002031900000000203190000000001422000000000000000000000000000700N
5006942434000197082279764     20111006ES011  2117646108P000000000070600000000007060000000000000000000000000000000000000000000N
5006942434000197082279764     20111006ES011  2117646403P000000001536000000000153600000000001030000000000000000000000000000700N
5008578702000169082433216     20111006ES011  2117656403P000000002511000000000251100000000001758000000000000000000000000000700N
5007747822000180082363137     20111006ES011  2117666108P000000000079500000000007950000000000056000000000000000000000000000700N
5007747822000180082363137     20111006ES011  2117666403P000000001986200000000198620000000001390000000000000000000000000000700N
500692646700014377803866      20111006RJ011  2117675403P000000002872800000000287280000000000000000000000000000000000000000000N
500278784200016085332848      20111006RJ011  2117685403P000000001713600000000171360000000000000000000000000000000000000000000N
500278784200016085332848      20111006RJ011  2117685102P000000000136800000000013680000000000260000000000000000000000000001900N
503240414700013380475373      20111006RJ011  2117695403P000000002283900000000228390000000000000000000000000000000000000000000N
503240414700013380475373      20111006RJ011  2117695102P000000000067800000000006780000000000129000000000000000000000000001900N
503240424600011580473362      20111006RJ011  2117705403P000000001330800000000133080000000000000000000000000000000000000000000N
5018338178000102ISENTO        20111006MG011  2117716108P000000028480000000002848000000000034176000000000000000000000000001200N
5038680013000121ISENTO        20111006MG011  2117726108P000000002207200000000220720000000002649000000000000000000000000001200N
5021562855000186ISENTO        20111006MG011  2117736108P000000000290000000000029000000000000000000000000000000000000000000000N
5021562855000186ISENTO        20111006MG011  2117736108P000000002070000000000207000000000002484000000000000000000000000001200N
50188851860001790622487700059 20111006MG011  2117746403P000000004335900000000433590000000005203000000000000000000000000001200N
50033003420001152420384410003 20111006MG011  2117756108P000000001156400000000115640000000001388000000000000000000000000001200N
50033003420001152420384410003 20111006MG011  2117756403P000000001700900000000170090000000002041000000000000000000000000001200N
500234410200015075610246      20111006RJ011  2117765403P000000001758400000000175840000000000000000000000000000000000000000000N
500234410200015075610246      20111006RJ011  2117765102P000000000249600000000024960000000000474000000000000000000000000001900N
503053623900014180840454      20111006RJ011  2117775403P000000002041000000000204100000000000000000000000000000000000000000000N
5030538011000190ISENTO        20111006RJ011  2117785403P000000006910000000000691000000000000000000000000000000000000000000000N
503954079400011184530387      20111006RJ011  2117795403P000000004057600000000405760000000000000000000000000000000000000000000N
503954079400011184530387      20111006RJ011  2117795102P000000000021000000000002100000000000040000000000000000000000000001900N
502985655600016681138850      20111006RJ011  2117805403P000000006654000000000665400000000000000000000000000000000000000000000N
502985655600016681138850      20111006RJ011  2117805102P000000001043100000000104310000000002086000000000000000000000000001900N
5028814127000163ISENTO        20111006RJ011  2117815403P000000010713500000001071350000000000000000000000000000000000000000000N
5028814127000163ISENTO        20111006RJ011  2117815102P000000000098800000000009880000000000198000000000000000000000000001900N
500309325500013475664206      20111007RJ011  2117825910P000000001170000000000117000000000002223000000000000000000000000001900N
500309325500013475664206      20111007RJ011  2117835403P000000007012300000000701230000000000000000000000000000000000000000000N
5029640612000120ISENTO        20111007RJ011  2117845403P000000010325000000001032500000000000000000000000000000000000000000000N
500565151700016477562893      20111007RJ011  2117855403P000000002589600000000258960000000000000000000000000000000000000000000N
500862122700016678245026      20111007RJ011  2117865403P000000001302700000000130270000000000000000000000000000000000000000000N
500862122700016678245026      20111007RJ011  2117865102P000000000707700000000070770000000001416000000000000000000000000001900N
503628763900014784212512      20111007RJ011  2117875403P000000007359300000000735930000000000000000000000000000000000000000000N
501090190000016378770880      20111007RJ011  2117885403P000000002023500000000202350000000000000000000000000000000000000000000N
50048505560001285112320660032 20111007MG011  2117896108P000000000574200000000057420000000000725000000000000000000000000001200N
50048505560001285112320660032 20111007MG011  2117896403P000000004325200000000432520000000005463000000000000000000000000001200N
5004249257000132ISENTO        20111007RJ011  2117905403P000000003100200000000310020000000000000000000000000000000000000000000N
502891222800017781079617      20111007RJ011  2117915403P000000012740000000001274000000000000000000000000000000000000000000000N
500299975400012285875213      20111007RJ011  2117925403P000000001593100000000159310000000000000000000000000000000000000000000N
500101466400017243668300      20111007BA011  2117936108P000000000533400000000053340000000000373000000000000000000000000000700N
500101466400017243668300      20111007BA011  2117936403P000000014717000000001471700000000010302000000000000000000000000000700N
50033003420001152420384410003 20111007MG011  2117946108P000000000308400000000030840000000000370000000000000000000000000001200N
50033003420001152420384410003 20111007MG011  2117946403P000000002176300000000217630000000002612000000000000000000000000001200N
50710075460001123848347810033 20111007MG011  2117956403P000000002920000000000292000000000003504000000000000000000000000001200N
500297025100012475775539      20111007RJ011  2117965403P000000000405000000000040500000000000000000000000000000000000000000000N
500297025100012475775539      20111007RJ011  2117965102P000000000100000000000010000000000000190000000000000000000000000001900N
501169269800017079005240      20111007RJ011  2117975403P000000002128200000000212820000000000000000000000000000000000000000000N
501169269800017079005240      20111007RJ011  2117975102P000000001206600000000120660000000002293000000000000000000000000001900N
503159135700011581124973      20111007RJ011  2117985403P000000001880400000000188040000000000000000000000000000000000000000000N
501353573300017279352993      20111007RJ011  2117995403P000000003991300000000399130000000000000000000000000000000000000000000N
501353573300017279352993      20111007RJ011  2117995102P000000000054100000000005410000000000108000000000000000000000000001900N
50023207270003435117319280188 20111007MG011  2118006108P000000000158000000000015800000000000190000000000000000000000000001200N
50023207270003435117319280188 20111007MG011  2118006403P000000001752900000000175290000000002103000000000000000000000000001200N
5018409219000104ISENTO        20111007MG011  2118016108P000000001923600000000192360000000002308000000000000000000000000001200N
5018259374000191ISENTO        20111007MG011  2118026108P000000001926000000000192600000000002311000000000000000000000000001200N
5018259374000191ISENTO        20111007MG011  2118036108P000000002060000000000206000000000002472000000000000000000000000001200N
5007740821000103ISENTO        20111007RJ011  2118045403P000000009455300000000945530000000000000000000000000000000000000000000N
5007740821000103ISENTO        20111007RJ011  2118045102P000000001888200000000188820000000003776000000000000000000000000001900N
5000079981000104ISENTO        20111007RJ011  2118055403P000000002655000000000265500000000000000000000000000000000000000000000N
5000079981000104ISENTO        20111007RJ011  2118055102P000000003140400000000314040000000005967000000000000000000000000001900N
5032412819000748ISENTO        20111007RJ011  2118065403P000000002753700000000275370000000000000000000000000000000000000000000N
5028615557000156ISENTO        20111007RJ011  2118075403P000000001517600000000151760000000000000000000000000000000000000000000N
502891222800017781079617      20111007RJ011  2118085403P000000017001300000001700130000000000000000000000000000000000000000000N
5029172475000147ISENTO        20111007RJ011  2118095403P000000000332000000000033200000000000000000000000000000000000000000000N
5039157029000117ISENTO        20111007RJ011  2118105403P000000011424000000001142400000000000000000000000000000000000000000000N
5028615557000156ISENTO        20111007RJ011  2118115949P000000000984000000000098400000000000000000000000000000000000000000000N
5002929814000130ISENTO        20111007MG011  2118126108P000000000167000000000016700000000000000000000000000000000000000000000N
5002929814000130ISENTO        20111007MG011  2118126108P000000003944000000000394400000000004733000000000000000000000000001200N
5017747932000103ISENTO        20111007MG011  2118136108P000000005594600000000559460000000006714000000000000000000000000001200N
5018259374000191ISENTO        20111007MG011  2118146108P000000001153000000000115300000000001384000000000000000000000000001200N
5026145631000192ISENTO        20111007MG011  2118156108P000000034444400000003444440000000041333000000000000000000000000001200N
5011247992000172ISENTO        20111007MG011  2118166108P000000099037500000009903750000000118845000000000000000000000000001200N
5032412819000748ISENTO        20111007RJ011  2118175403P000000003289700000000328970000000000000000000000000000000000000000000N
5017947615000122ISENTO        20111007MG011  2118186108P000000000532800000000053280000000000639000000000000000000000000001200N
5032412819000748ISENTO        20111007RJ011  2118195102P000000002567400000000256740000000004878000000000000000000000000001900N
5018338178000102ISENTO        20111007MG011  2118206108P000000002989800000000298980000000003588000000000000000000000000001200N
503922450600011084992046      20111007RJ011  2118215403P000000008643800000000864380000000000000000000000000000000000000000000N
503922450600011084992046      20111007RJ011  2118215102P000000004140000000000414000000000007866000000000000000000000000001900N
500174555100014785420941      20111007RJ011  2118225403P000000003145500000000314550000000000000000000000000000000000000000000N
500174555100014785420941      20111007RJ011  2118225102P000000000315000000000031500000000000599000000000000000000000000001900N
5017747932000103ISENTO        20111007MG011  2118236108P000000025847400000002584740000000031017000000000000000000000000001200N
501058994000011178687070      20111007RJ011  2118245403P000000001657500000000165750000000000000000000000000000000000000000000N
501058994000011178687070      20111007RJ011  2118245102P000000000196000000000019600000000000372000000000000000000000000001900N
5018114223000145ISENTO        20111007MG011  2118256108P000000010200000000001020000000000012240000000000000000000000000001200N
5005797356000111ISENTO        20111007RJ011  2118265403P000000008340400000000834040000000000000000000000000000000000000000000N
502964462200013481105715      20111007RJ011  2118275403P000000002600000000000260000000000000000000000000000000000000000000000N
5002197695000179ISENTO        20111007RJ011  2118285403P000000001969400000000196940000000000000000000000000000000000000000000N
501169269800017079005240      20111007RJ011  2118295403P000000004040000000000404000000000000000000000000000000000000000000000N
5030538011000190ISENTO        20111007RJ011  2118305403P000000002071000000000207100000000000000000000000000000000000000000000N
50042895740001824001145170020 20111007MG011  2118316403P000000002246000000000224600000000002695000000000000000000000000001200N
500691322800015977784446      20111007RJ011  2118325403P000000001957000000000195700000000000000000000000000000000000000000000N
500691322800015977784446      20111007RJ011  2118325102P000000000213700000000021370000000000428000000000000000000000000001900N
5004249257000132ISENTO        20111007RJ011  2118335403P000000006296000000000629600000000000000000000000000000000000000000000N
5027150549000119ISENTO        20111007ES011  2118346108P000000001812000000000181200000000001268000000000000000000000000000700N
502821957400017480897448      20111007RJ011  2118355403P000000006368600000000636860000000000000000000000000000000000000000000N
500606542300017677675795      20111007RJ011  2118365403P000000020112000000002011200000000000000000000000000000000000000000000N
501078988600015878759852      20111007RJ011  2118375403P000000000000000000000000000000000000000000000000000000000000000000000S
501078988600015878759852      20111007RJ011  2118375102P000000000000000000000000000000000000000000000000000000000000000000000S
501268565000010579210714      20111007RJ011  2118385403P000000002603400000000260340000000000000000000000000000000000000000000N
501268565000010579210714      20111007RJ011  2118385102P000000000290000000000029000000000000551000000000000000000000000001900N
503159226400010581128014      20111007RJ011  2118395102P000000000505200000000050520000000000000000000000000000000000000000000N
503159226400010581128014      20111007RJ011  2118395403P000000003331500000000333150000000000000000000000000000000000000000000N
503159226400010581128014      20111007RJ011  2118395102P000000002930500000000293050000000005568000000000000000000000000001900N
5018338129000170ISENTO        20111007MG011  2118406108P000000002970000000000297000000000003564000000000000000000000000001200N
50093152240001670010587530049 20111007MG011  2118416403P000000003473200000000347320000000004168000000000000000000000000001200N
503022733400016380666136      20111007RJ011  2118425403P000000005845800000000584580000000000000000000000000000000000000000000N
500820129400012178198397      20111007RJ011  2118435403P000000001310700000000131070000000000000000000000000000000000000000000N
500820129400012178198397      20111007RJ011  2118435102P000000000301200000000030120000000000572000000000000000000000000001900N
5007900983000161ISENTO        20111007RJ011  2118445102P000000006855000000000685500000000000000000000000000000000000000000000N
503159226400010581128014      20111007RJ011  2118455403P000000000350400000000035040000000000000000000000000000000000000000000N
503159226400010581128014      20111007RJ011  2118455102P000000000670500000000067050000000001274000000000000000000000000001900N
500394642800011086223546      20111007RJ011  2118465403P000000003640000000000364000000000000000000000000000000000000000000000N
503126593700011280829221      20111007RJ011  2118475102P000000000500400000000050040000000000951000000000000000000000000001900N
50023207270001815117319280005 20111007MG011  2118486108P000000000193200000000019320000000000232000000000000000000000000001200N
50023207270001815117319280005 20111007MG011  2118486403P000000001729200000000172920000000002075000000000000000000000000001200N
50240029410001225415762900079 20111007MG011  2118496108P000000001791600000000179160000000002150000000000000000000000000001200N
50240029410001225415762900079 20111007MG011  2118496403P000000009846000000000984600000000011815000000000000000000000000001200N
50260393210001932460612370086 20111007MG011  2118506108P000000000015100000000001510000000000018000000000000000000000000001200N
50260393210001932460612370086 20111007MG011  2118506403P000000000921000000000092100000000001105000000000000000000000000001200N
50042895740001824001145170020 20111007MG011  2118516403P000000001928400000000192840000000002314000000000000000000000000001200N
5018338178000102ISENTO        20111007MG011  2118526108P000000030751800000003075180000000036902000000000000000000000000001200N
50240029410001225415762900079 20111007MG011  2118536403P000000004117600000000411760000000004941000000000000000000000000001200N
50005920690001513939294030097 20111007MG011  2118546403P000000003724900000000372490000000004470000000000000000000000000001200N
501078988600015878759852      20111007RJ011  2118555403P000000006391800000000639180000000000000000000000000000000000000000000N
501078988600015878759852      20111007RJ011  2118555102P000000000126000000000012600000000000239000000000000000000000000001900N
503923417400015484831468      20111007RJ011  2118565403P000000001410000000000141000000000000000000000000000000000000000000000N
503923417400015484831468      20111007RJ011  2118565102P000000000930000000000093000000000001767000000000000000000000000001900N
5012047232000184ISENTO        20111007RJ011  2118575403P000000034741800000003474180000000000000000000000000000000000000000000N
5004249257000132ISENTO        20111007RJ011  2118585403P000000004575000000000457500000000000000000000000000000000000000000000N
5004249257000132ISENTO        20111007RJ011  2118585102P000000000930000000000093000000000001767000000000000000000000000001900N
